:020000040000FA
:0400000080310E2815
:100008007E14803101302000A0000030A1008B1048
:100018007E100900803110282000A001A1017E1067
:100028002000803117288031D72080310030F3003C
:100038000030F2000030F100C030F00080317B2049
:1000480080310030F3000030F2000030F1008830D9
:10005800F00080317B20803129302000A3009630C9
:10006800A2007F30890B3628A20B3628A30B36282E
:100078000030F3000030F2000030F1008530F0006D
:1000880080317B208031A3302000A3005730A200AC
:100098000230890B4D28A20B4D28A30B4D280000D8
:1000A80020008E1854280030F3000030F200003091
:1000B800F1000430F00080317B2080313D30200099
:1000C800A300E130A2003F30890B6828A20B682802
:1000D800A30B682800320030F3000030F200003033
:1000E800F100A130F00080317B20803154288B173B
:1000F80022000E100B30F4006230890B8128F40BBB
:1001080081280032FC01FD01200020082104031988
:1001180088280A307C067D04031D952822000E14C9
:10012800C1287008F4007108F5007208F600730819
:10013800F7007C08093C890AA528F737F60CF50C66
:10014800F40C890BA12801307405F80000307505FE
:10015800F90000307605FA0000307705FB007803D7
:1001680079047A047B04031DBC2822000E14BE28DF
:1001780022000E102000A001A1010130FC07003070
:10018800FD3D7D08803AF40080307402031DCE28BE
:100198000B307C02031C88282000A001A1018B13CE
:1001A80022000E14080022000E14210099151916B9
:1001B800991619178B1323008C018E0121008C01CD
:1001C8008E0120008C018E0122008C018E010E14FC
:1001D8002100951324000C1521000C158E141517F9
:1001E8001530F1004B30F000BE30890BF928F00BC8
:1001F800F928F10BF92800328B130B160800853407
:1002080000340034003484340034003400340434BE
:0602180000340034003444
:020000040001F9
:04000E00A4C9FFFC86
:00000001FF
