:020000040000FA
:04000000803118280B
:100008007E1480318B1C0E2801302000E500003062
:10001800E6008B102000911E162823001908F00016
:100028007008F9007E10090080311A28F901203083
:10003800840000308500493081319A217E102000EB
:10004800803126288131692180310030F400003068
:10005800F3000030F200C030F1008031B42080316C
:100068000030F4000030F3000030F200B030F1004E
:100078008031B42080310030F4000030F3000030CB
:10008800F200A030F1008031B42080310030F4005B
:100098000030F3000030F2008430F1008031B420E9
:1000A80080310B302100A1002630A0005D30890B83
:1000B8005B28A00B5B28A10B5B2800320030F40002
:1000C8000030F3000030F2000930F1008031B42034
:1000D800803115302100A1004B30A000BE30890BC3
:1000E8007328A00B7328A10B732800000030F400BC
:1000F8000030F3000030F2008530F1008031B42088
:10010800803133302100A100BB30A000DF30890BE3
:100118008B28A00B8B28A10B8B2800327908210093
:10012800A000A101A201A3012308F4002208F30002
:100138002108F2002008F1008031B42080317908CC
:1001480023009A0006302100A1001330A000AD3032
:10015800890BAC28A00BAC28A10BAC280032922844
:1001680021000E108B1722000E100630F5003030DB
:10017800890BBC28F50BBC2800322000ED01EE01EC
:100188002000650866040319C4280A306D066E0449
:10019800031DD12822000E14FD287108F5007208ED
:1001A800F6007308F7007408F8006D08093C890A1E
:1001B800E128F837F70CF60CF50C890BDD2801302F
:1001C8007505E90000307605EA0000307705EB0098
:1001D80000307805EC0069036A046B046C04031DA5
:1001E800F82822000E14FA2822000E102000E5013B
:1001F800E60101302000ED070030EE3D6E08803A40
:10020800F50080307502031D0B290B306D02031CAD
:10021800C4282000E501E6018B1322000E142100FA
:100228000E14080022009D131D1121000E128E16B7
:10023800FF302000E700F3007308E8003829003099
:1002480023009C000C303629003023009C004030ED
:100258003629003023009C002A303629003023003C
:100268009C0024309B005A297208253A0319462914
:100278006E3A03194B293B3A03195029F33A0319EB
:1002880055295A297108803A031923295A297108CE
:10029800003A031928295A297108803A03192D2987
:1002A8005A297108403A031932295A2923001E1382
:1002B8009E161E121E119F119D171D131D169D11AE
:1002C800210091160B178B17080022000E1421002D
:1002D80099111916991619178B1323008C018E0181
:1002E80021008C018E0120008C018E0122008C01DE
:1002F8008E010E142100951324000C1521000C15F5
:100308008E1415170B30F5002630F4005E30890B7B
:100318008B29F40B8B29F50B8B298B130B1680304B
:10032800F1002530F20081311621080064008001B7
:080338000131890B9B290034FF
:020000040001F9
:04000E00E4C9FFFC46
:00000001FF
