:020000040000FA
:0400000080310D2816
:100008007E14803101302000A0000030A1007E1055
:10001800090080310F282000A001A1017E102000D6
:10002800803116288031D62080310030F30000302E
:10003800F2000030F100C030F00080317A208031C9
:100048000030F3000030F2000030F1008830F0009A
:1000580080317A20803129302000A3009630A20018
:100068007F30890B3528A20B3528A30B35280030A3
:10007800F3000030F2000030F1008530F0008031EC
:100088007A208031A3302000A3005730A20002302C
:10009800890B4C28A20B4C28A30B4C2800002000ED
:1000A8008E1C53280030F3000030F2000030F100BD
:1000B8000430F00080317A2080313D302000A300E8
:1000C800E130A2003F30890B6728A20B6728A30BF9
:1000D800672800320030F3000030F2000030F100F1
:1000E800A130F00080317A20803153288B1722000C
:1000F8000E100B30F4006230890B8028F40B802836
:100108000032FC01FD012000200821040319872882
:100118000A307C067D04031D942822000E14C02892
:100128007008F4007108F5007208F6007308F7000B
:100138007C08093C890AA428F737F60CF50CF40C5E
:10014800890BA02801307405F80000307505F90006
:1001580000307605FA0000307705FB007803790453
:100168007A047B04031DBB2822000E14BD2822003C
:100178000E102000A001A1010130FC070030FD3D58
:100188007D08803AF40080307402031DCD280B30BE
:100198007C02031C87282000A001A1018B132200E8
:1001A8000E14080022000E1421009915191699162C
:1001B8008B1323008C018E0121008C018E012000FD
:1001C8008C018E0122008C018E010E141530F10075
:1001D8004B30F000BE30890BEF28F00BEF28F10B05
:1001E800EF2800328B1308008534003400340034C3
:1001F80084340034003400340434003400340034CF
:020000040001F9
:04000E00A4C9FFFC86
:00000001FF
