:020000040000FA
:040000008031202803
:100008007E1480318B1C0E2801302000A90000309E
:10001800AA008B102000911E1E2823001908F0004A
:10002800F10170082000A7007108A8000130A500A0
:100038000030A6007E10090080312228FA01FB0159
:1000480020308400003085000B308131C42180319C
:10005800A03084000030850040308131C4217E10FA
:100068002000803137288131922180310030F5001D
:100078000030F4000030F300C030F2008031E0209E
:1000880080310030F5000030F4000030F300B0306B
:10009800F2008031E02080310030F5000030F400BB
:1000A8000030F300A030F2008031E02080310030D1
:1000B800F5000030F4000030F3008430F2008031A5
:1000C800E02080310B302000B2002630B1005D30D6
:1000D800890B6C28B10B6C28B20B6C2800320030ED
:1000E800F5000030F4000030F3000930F2008031F0
:1000F800E020803115302000B2004B30B100BE3016
:10010800890B8428B10B8428B20B842800000030A6
:10011800F5000030F4000030F3008530F200803143
:10012800E020803133302000B200BB30B100DF3036
:10013800890B9C28B10B9C28B20B9C28003220000C
:100148008E18CB2802302000B2000430B100BA303B
:10015800890BAC28B10BAC28B20BAC2800000030DE
:10016800F5000030F4000030F3000430F200803174
:10017800E020803102302000B2000430B100BA30F3
:10018800890BC428B10BC428B20BC4280000200076
:1001980025032604031DA3282708F2002808F300D6
:1001A800890D893B8909F400F5008031E020803110
:1001B8002000A501A601A32821000E100B1622007D
:1001C8000E100630F6003030890BE828F60BE828C8
:1001D80000322000AF01B001200029082A040319C9
:1001E800F0280A302F063004031DFD2822000E14C3
:1001F80029297208F6007308F7007408F8007508D2
:10020800F9002F08093C890A0D29F937F80CF70C71
:10021800F60C890B092901307605AB00003077050B
:10022800AC0000307805AD0000307905AE002B0336
:100238002C042D042E04031D242922000E14262923
:1002480022000E102000A901AA0101302000AF07EA
:100258000030B03D3008803AF60080307602031D49
:1002680037290B302F02031CF0282000A901AA010E
:100278000B1222000E1421000E14080022009D13F8
:100288001D1121000E128E16FF30FA00F4007408BA
:10029800FB006329003023009C000C3061290030EA
:1002A80023009C0040306129003023009C002A3044
:1002B8006129003023009C0024309B0085297308A5
:1002C800253A031971296E3A031976293B3A03191D
:1002D8007B29F33A0319802985297208803A031982
:1002E8004E2985297208003A03195329852972086D
:1002F800803A0319582985297208403A03195D295B
:10030800852923001E139E161E121E119F119D176C
:100318001D131D169D1121009116080022000E14B0
:10032800210099111916991619178B1323008C019E
:100338008E0121008C018E0120008C018E0122008B
:100348008C018E010E142100951324000C15210038
:100358000C158E1415170B30F6002630F5005E309C
:10036800890BB429F50BB429F60BB4298B170B1696
:100378000B178030F2002530F3008131422108004C
:0C038800640080010131890BC52900349C
:020000040001F9
:04000E00E4C9FFFC46
:00000001FF
