:020000040000FA
:04000000803119280A
:100008007E14803101302000E5000030E6008B10BE
:10001800911E172823001908F0007008F9007908C4
:100028009A00200091127E10090080311B28F901E6
:1000380020308400003085004930813198217E10BD
:100048002000803127288131672180310030F40079
:100058000030F3000030F200C030F1008031B220EF
:1000680080310030F4000030F3000030F200B0308E
:10007800F1008031B22080310030F4000030F3000C
:100088000030F200A030F1008031B2208031003021
:10009800F4000030F3000030F2008430F1008031C9
:1000A800B22080310B302100A1002630A0005D3045
:1000B800890B5C28A00B5C28A10B5C28003200305F
:1000C800F4000030F3000030F2000930F100803114
:1000D800B220803115302100A1004B30A000BE3085
:1000E800890B7428A00B7428A10B74280000003019
:1000F800F4000030F3000030F2008530F100803168
:10010800B220803133302100A100BB30A000DF30A5
:10011800890B8C28A00B8C28A10B8C28003279081D
:100128002100A000A101A201A3012308F4002208D4
:10013800F3002108F2002008F1008031B22080315C
:1001480006302100A1001330A000AD30890BAA2889
:10015800A00BAA28A10BAA280032932821000E1070
:100168008B1722000E100630F5003030890BBA28A4
:10017800F50BBA2800322000ED01EE0120006508D9
:1001880066040319C2280A306D066E04031DCF28C1
:1001980022000E14FB287108F5007208F600730897
:1001A800F7007408F8006D08093C890ADF28F83759
:1001B800F70CF60CF50C890BDB2801307505E90006
:1001C80000307605EA0000307705EB00003078054E
:1001D800EC0069036A046B046C04031DF628220012
:1001E8000E14F82822000E102000E501E601013067
:1001F8002000ED070030EE3D6E08803AF5008030B3
:100208007502031D09290B306D02031CC22820004A
:10021800E501E6018B1322000E1421000E140800DC
:1002280022009D131D1121000E128E16FF30200092
:10023800E700F3007308E8003629003023009C002B
:100248000C303429003023009C0040303429003021
:1002580023009C002A303429003023009C002430DD
:100268009B0058297208253A031944296E3A031944
:1002780049293B3A03194E29F33A031953295829B6
:100288007108803A0319212958297108003A03197D
:10029800262958297108803A03192B2958297108E9
:1002A800403A03193029582923001E139E161E129E
:1002B8001E119F119D171D131D169D1121009116CA
:1002C8000B178B17080022000E142100991119161C
:1002D800991619178B1323008C018E0121008C01AC
:1002E8008E0120008C018E0122008C018E010E14DB
:1002F8002100951324000C1521000C158E141517D8
:100308000B30F5002630F4005E30890B8929F40B98
:100318008929F50B89298B130B168030F1002530BC
:10032800F200813114210800640080010131890B39
:0403380099290034CB
:020000040001F9
:04000E00E4C9FFFC46
:00000001FF
