:020000040000FA
:040000000CEF00F011
:100008001482000E136E010E126EF29214921100F9
:04001800CDEF08F030
:101000000085000000840000000400000000000EC5
:101010000A6E000E0B6E000E0C6E000E0D6EF28E40
:101020008A920B0E056E620EE82EFED7052EFCD7B7
:1010300000D0000E0F6E000E0E6E12501310D8B4BA
:10104000FCD70A0E0E180F10D8A402D08A822ED018
:101050000E500908056E01C006F002C007F003C07B
:1010600008F004C009F0056601D007D00934093240
:10107000083207320632052EF6D7010E06140A6E24
:10108000000E07140B6E000E08140C6E000E0914EF
:101090000D6E0A040B100C100D10D8A402D08A8219
:1010A00001D08A92000E136E000E126E0E4A0F2AA5
:1010B0000FBEC3D70F5004E10B0E0E5CD8A0BDD7F6
:1010C000000E136E000E126EF29E8A8212008A8249
:1010D000D388D38AD38C9B9CF29E000E0F01386F6D
:1010E000000E396F000E3A6F000E3B6F000E3C6F22
:1010F000000E926E000E936E000E946E000E956EB2
:10110000000E966E000E806E000E816E000E826ED6
:10111000000E836E000E846E000E896E020E8A6EC3
:10112000000E8B6E000E8C6E000E8D6E8A82F19E0C
:1011300061829380F18C150E026E4B0E016EBE0E15
:10114000E82EFED7012EFCD7022EFAD700D0F29E51
:10115000F288120067EC08F0840E016E000E026E39
:10116000000E036E000E046E07EC08F0150E116EF3
:101170004B0E106EBE0EE82EFED7102EFCD7112E91
:10118000FAD700D0850E016E000E026E000E036EBF
:10119000000E046E07EC08F0FFD7136A126A149071
:1011A0001492000EF86E100EF76E0001AAEF08F010
:020000040020DA
:08000000FFFFFFFFFFFFFFFF00
:020000040030CA
:0E000000FF28193CFFBD84FF0FC00FE00F402A
:00000001FF
